:100000000C942A000C9447000C9447000C94470071
:100010000C9447000C9447000C9447000C94470044
:100020000C9447000C94C9010C9447000C944700B1
:100030000C9447000C9447000C9447000C94470024
:100040000C9447000C9447000C9447000C94470014
:100050000C94470011241FBECFE5D8E0DEBFCDBF12
:1000600010E0A0E6B0E0E0EEF9E002C005900D92ED
:10007000A03EB107D9F720E0A0EEB0E001C01D928C
:10008000A53FB207E1F70E94F3020C94EE040C9432
:100090000000C09AC69AC198C798682F70E064564D
:1000A0007109072E000C880B990B0E94B40323E3FF
:1000B00033E343E250E40E94400420E030E04FE7A5
:1000C00053E40E9417030E9483036CBF63BD08952D
:1000D000C09AC69AC198C7981CBE682F70E0645633
:1000E0007109072E000C880B990B0E94B40323E3BF
:1000F00033E343E250E40E94400420E030E04FE765
:1001000053E40E9417030E94830363BD089589E6A8
:1001100083BF85BD1CBE13BC0895CF93DF93E0E67B
:10012000F0E020E030E061E070E0422F4770C9016C
:100130009695879596958795969587959927813079
:100140009105E9F140F08230910509F46CC0039704
:1001500009F49DC0CFC0EF018081813059F45AB3BA
:10016000CB01042E02C0880F991F0A94E2F7852B59
:100170008ABB0CC09AB3DB01042E02C0AA0FBB1FBE
:100180000A94E2F78A2F809589238ABB898181307E
:1001900051F45BB3CB0102C0880F991F4A95E2F777
:1001A000852B8BBBA7C09BB3DB0102C0AA0FBB1F73
:1001B0004A95E2F78A2F809589238BBB9BC0EF017C
:1001C0008081813059F457B3CB01042E02C0880FCF
:1001D000991F0A94E2F7852B87BB0CC097B3DB010C
:1001E000042E02C0AA0FBB1F0A94E2F78A2F809543
:1001F000892387BB8981813051F458B3CB0102C078
:10020000880F991F4A95E2F7852B88BB73C098B376
:10021000DB0102C0AA0FBB1F4A95E2F78A2F809527
:10022000892388BB67C0EF018081813059F454B3C2
:10023000CB01042E02C0880F991F0A94E2F7852B88
:1002400084BB0CC094B3DB01042E02C0AA0FBB1FF9
:100250000A94E2F78A2F8095892384BB89818130B3
:1002600051F455B3CB0102C0880F991F4A95E2F7AC
:10027000852B85BB3FC095B3DB0102C0AA0FBB1F16
:100280004A95E2F78A2F8095892385BB33C0EF0119
:100290008081813059F451B3CB01042E02C0880F04
:1002A000991F0A94E2F7852B81BB0CC091B3DB0147
:1002B000042E02C0AA0FBB1F0A94E2F78A2F809572
:1002C000892381BB8981813051F452B3CB0102C0B3
:1002D000880F991F4A95E2F7852B82BB0BC092B31A
:1002E000DB0102C0AA0FBB1F4A95E2F78A2F809557
:1002F000892382BB2F5F3F4F32962032310509F0B0
:1003000014CFDF91CF91089581E48EBD89B78460C9
:1003100089BF78940895939A85E38A95F1F7000050
:10032000939808B605FEFDCF88B7806288BF8EB56A
:100330008F7B8EBD1092F4001DBC1CBC08B605FE60
:10034000FDCF88B7806288BF8EB580648EBD26B52C
:1003500037B56091F400862F90E0A0E0B0E0DC01BA
:1003600099278827BC01CD01620F731F811D911D44
:1003700025EA33E040E050E00E94AD042093F00015
:100380003093F1004093F2005093F300CA01B90199
:1003900008951F920F920FB60F9211248F938091A0
:1003A000F4008F5F8093F4008F910F900FBE0F9039
:1003B0001F9018950E948D000E9487000E940D02D8
:1003C0000E9484010E94E60208959BB39F70282F2B
:1003D000207F922B9BBBDA98D89A35E33A95F1F7B8
:1003E0000000D898EFE9FFE03197F1F700C0000076
:1003F0002BB32F70F0E18F9FC0011124822B8BBB98
:10040000D89A35E33A95F1F70000D8988FE99FE044
:100410000197F1F700C0000008958FEF8ABB84E0D8
:100420008ABBD19AD09AD9982FEF89EF90E02150CA
:1004300080409040E1F700C0000083E30E94E501A6
:1004400082E30E94E50188E20E94E5018CE00E94BF
:10045000E50108959BB39F70282F207F922B9BBBB3
:10046000DA9AD89A3AE63A95F1F700C0D898EFE9C7
:10047000FFE03197F1F700C000002BB32F70F0E1DF
:100480008F9FC0011124822B8BBBD89A3AE63A95F4
:10049000F1F700C0D8988FE99FE00197F1F700C00D
:1004A00000000895CF93DF93EC018881882331F019
:1004B00021960E942A0289918111FBCF80E80E9437
:1004C000E501DF91CF91089580EC0E94E501089548
:1004D00081E00E94E50108950F931F93CF93DF936E
:1004E00080EA90E00E94520280E80E94E5010E94AA
:1004F00064028BEB90E00E94520280E80E94E501CA
:1005000010E0D0E001E006C0D1E004C0D2E002C0BB
:10051000102FD3E00E94EF02C82FD1114CC00E94CF
:1005200068028C2F0E942A02C13619F4DD2361F380
:1005300009C0C23619F4D13029F4E8CFC33611F41A
:10054000D23031F3112381F00E9468028DEA90E0ED
:100550000E9452022FEF83EC99E02150804090409E
:10056000E1F700C000002DC0D33018F10E946802EE
:1005700085EB90E00E9452022FEF83EC99E021502E
:1005800080409040E1F700C000000E94680280EACD
:1005900090E00E94520280E80E94E5010E946402FD
:1005A0008BEB90E00E94520280E80E94E501D0E0CF
:1005B000B1CFDF5FAFCF0E942A02C13609F0B9CFB9
:1005C000C1CFDF91CF911F910F91089587E689B92F
:1005D00080B5866880BD8AB188618AB908955F9BBD
:1005E000FECF8CB108950E94DA010E946C0284EC67
:1005F00090E00E9452020E948B01613571058105D5
:10060000910554F084E60E9449000E9464028DEC3A
:1006100090E00E945202EFCF84E60E9468000E94A0
:10062000640287ED90E00E945202E5CF5058BB274C
:10063000AA270E942E030C9406040E94F80338F0A7
:100640000E94FF0320F039F49F3F19F426F40C9424
:10065000F5030EF4E095E7FB0C94EF03E92F0E94FD
:10066000170458F3BA17620773078407950720F039
:1006700079F4A6F50C9439040EF4E0950B2EBA2FFC
:10068000A02D0B01B90190010C01CA01A001112498
:10069000FF27591B99F0593F50F4503E68F11A1644
:1006A000F040A22F232F342F4427585FF3CF4695D5
:1006B00037952795A795F0405395C9F77EF41F16F7
:1006C000BA0B620B730B840BBAF09150A1F0FF0FC1
:1006D000BB1F661F771F881FC2F70EC0BA0F621FAD
:1006E000731F841F48F4879577956795B795F7959D
:1006F0009E3F08F0B0CF9395880F08F09927EE0F32
:100700009795879508950E941F0488F09F5798F049
:10071000B92F9927B751B0F0E1F0660F771F881F06
:10072000991F1AF0BA95C9F714C0B13091F00E9420
:100730003904B1E008950C943904672F782F882785
:10074000B85F39F0B93FCCF3869577956795B39547
:10075000D9F73EF490958095709561957F4F8F4FB6
:100760009F4F0895E89409C097FB3EF490958095BB
:10077000709561957F4F8F4F9F4F9923A9F0F92F67
:1007800096E9BB279395F695879577956795B795E5
:10079000F111F8CFFAF4BB0F11F460FF1BC06F5FCB
:1007A0007F4F8F4F9F4F16C0882311F096E911C0DD
:1007B000772321F09EE8872F762F05C0662371F0FE
:1007C00096E8862F70E060E02AF09A95660F771F12
:1007D000881FDAF7880F9695879597F9089597F906
:1007E0009F6780E870E060E008959FEF80EC0895D7
:1007F00000240A9416161706180609060895002400
:100800000A9412161306140605060895092E039479
:10081000000C11F4882352F0BB0F40F4BF2B11F4ED
:1008200060FF04C06F5F7F4F8F4F9F4F089557FD4C
:100830009058440F551F59F05F3F71F04795880F4E
:1008400097FB991F61F09F3F79F0879508951216E5
:1008500013061406551FF2CF4695F1DF08C0161691
:1008600017061806991FF1CF869571056105089442
:100870000895E894BB2766277727CB0197F9089559
:100880000E9453040C9406040E94F80338F00E945E
:10089000FF0320F0952311F00C94EF030C94F50363
:1008A00011240C943A040E94170470F3959FC1F32D
:1008B000950F50E0551F629FF001729FBB27F00D0E
:1008C000B11D639FAA27F00DB11DAA1F649F662763
:1008D000B00DA11D661F829F2227B00DA11D621FB2
:1008E000739FB00DA11D621F839FA00D611D221F6C
:1008F000749F3327A00D611D231F849F600D211D50
:10090000822F762F6A2F11249F5750409AF0F1F0D2
:1009100088234AF0EE0FFF1FBB1F661F771F881F3B
:1009200091505040A9F79E3F510580F00C94EF0381
:100930000C943A045F3FE4F3983ED4F386957795A0
:100940006795B795F795E7959F5FC1F7FE2B880FE1
:10095000911D9695879597F90895052E97FB1EF49E
:1009600000940E94C40457FD07D00E94CC0407FCE9
:1009700003D04EF40C94C4045095409530952195C5
:100980003F4F4F4F5F4F08959095809570956195BB
:100990007F4F8F4F9F4F0895A1E21A2EAA1BBB1BBA
:1009A000FD010DC0AA1FBB1FEE1FFF1FA217B3073B
:1009B000E407F50720F0A21BB30BE40BF50B661F51
:1009C000771F881F991F1A9469F760957095809515
:1009D00090959B01AC01BD01CF010895F894FFCF24
:1009E00001000100010001000100010001000100FF
:1009F00001000100010001000100010001000100EF
:100A000001000100010001000100010001000100DE
:100A100000000100010001000100010000000100D0
:100A2000506C6561736520456E74657200436F722A
:100A3000726563740057726F6E67205061737377CD
:100A40006F72640048656C6C6F203A2900466F72C3
:100A50007761726420200044616E67657221000036
:00000001FF
